:020000040800F2
:10000000E8130020913700088D3400088F34000871
:100010009134000893340008953400080000000073
:1000200000000000000000000000000097340008FD
:1000300099340008000000009B3400089D3400083B
:10004000D1370008D5370008D93700081D3500081A
:10005000E1370008E5370008E9370008ED37000808
:10006000F1370008F5370008F9370008FD370008B8
:1000700001380008053800089724000869240008A2
:10008000FD3500081F360008193800081D38000823
:100090002138000825380008293800082D380008C4
:1000A0003138000835380008393800083D38000874
:1000B0004138000845380008493800084D38000824
:1000C0005138000855380008593800085D380008D4
:1000D00061380008A534000869380008DD340008DC
:1000E0007138000875380008793800082DE9F04F9C
:1000F00080460FF21860A5B017461D46D0E90023D0
:10010000CDE91223002004910D900DF1500A6FF0FB
:10011000004900E0E7190020ADF8020012AB4FF0F3
:10012000FF3239460DF1020001F088F80446012C37
:1001300004DA3878441EA441E043C40FBDF802003D
:1001400025280CBFA4F1010BA346BBF1010F0EDB68
:100150003E4616F8011B0498C0470490002800F0A2
:10016000CF820D98401CBBF1010B0D90F1D1BDF871
:100170000200252807D100200790089009900A90D6
:100180000B900C9005E00028C4D10D98BAE240F025
:10019000010017F8011F2029F9D023290DD02B29A0
:1001A00004D02D2906D030290AD00CE040F00200FE
:1001B00080B2EEE740F00400FAE740F00800F7E70D
:1001C00040F01000F4E72A290ED12968296051F87F
:1001D000042B2960002A0F9204D5514240F00400FC
:1001E0000F9180B27F1C11E000210F9109E00F995F
:1001F000494505D001EB810302EB430130390F91F2
:100200007F1C3A78A2F130010A29F0D339782E29DF
:1002100003D04FF0FF310E911DE017F8011F2A297E
:1002200007D1296829607F1C51F8042B29600E92A0
:1002300011E000210E9109E00E99494505D001EB2E
:10024000810302EB430130390E917F1C3A78A2F111
:1002500030010A29F0D3ADF840000FF2B8403978E8
:1002600000F0FCFF08B117F8010B8DF842009DF873
:100270004200682802BF39786829622005D06C28BE
:1002800004BF38786C2803D171208DF842007F1CA0
:1002900014A8069017F8014BB4F125002AD01C3899
:1002A00000F0CC80001F022840F2C880133800F014
:1002B000EE80093800F0C280801E00F04F81401EA1
:1002C00000F02481401E022840F2B880001F00F098
:1002D0001D81401F00F08380401E00F0D880401E2A
:1002E0002DD0C01E0CD0801E00F0D180C01E00F0AA
:1002F000CE8056E10120079025208DF850005BE16B
:100300009DF842006C282868286014D050F8046BCF
:10031000286005960E9C002C04D5304600F0BAFFEC
:10032000044606E022460021304600F0CFFF00B12F
:10033000841B089440E150F8042B28602AE12968C6
:1003400029603C2451F8040B29600021CDE9020109
:1003500014A80590DDE90201069E11B908B90E9AAC
:10036000B2B10206120FA0EB02123032631ED2B2FB
:100370003A2AA8BF2732000940EA017009099A55B4
:1003800008BF00281C4603D0059AA3199A42E8D357
:10039000A0190590C4F13C010E980891814209DA38
:1003A000401A0A904FF6EF71BDF840000840ADF8D2
:1003B000400001E1002840F1FF809DF8400000F07E
:1003C0001400102840F0F8800F98079A801A0A9AB3
:1003D000801A401A0128C0F2EF800A90ECE09DF8E4
:1003E000420062281AD0682806D06A280CD06C28EF
:1003F0001CD0712808D019E02868286050F8041B28
:1004000028600D980880D7E02868286050F8042BF1
:1004100028600D98C117C2E90001CDE02868286066
:1004200050F8041B28600D980870C5E02868286003
:1004300050F8041B28600D980860BDE02868C01DB6
:1004400020F007022A60D2E9000108322A60CDE9D3
:100450000201002903D5012007902D200CE0BDF8F2
:100460004000810703D5012007902B2004E0C0073E
:1004700004D50120079020208DF85000079914A87A
:1004800008180590214602A800F08CFB94E09DF826
:1004900042206C2A0DD0712A18BF6A2A09D1286817
:1004A000C01D20F007032B60D3E9000108332B6047
:1004B00005E02968296051F8040B29600021CDE985
:1004C0000201682A08BF80B207D0622A08BFC0B202
:1004D00003D0742A18BF7A2A02D10021CDE9020183
:1004E0009DF84000000730D5DDE90201002908BF72
:1004F00000282AD044F02000782826D130208DF81A
:1005000050008AF80140022007901EE09DF842004A
:10051000294600F003F9CDE90201002904DA079821
:10052000411C07912D210EE0BDF84000810704D544
:100530000798411C07912B2105E0C00705D50798B6
:10054000411C0791202100F80A10079914A80818E7
:100550000590214602A800F0A1FA2DE09DF8420086
:100560006C2809D0012007902868286050F8041BE7
:1005700028608DF850101FE02868286001AA50F804
:10058000041B2860ADF804100020ADF806004FF001
:10059000FF300E9002A9404600F0F7F800280BD576
:1005A000AEE00120079025208DF8500024B1079877
:1005B000411C079100F80A400F980799401A0A99C0
:1005C000401A0899401A0B99401A0999401A0C9937
:1005D000441A9DF84000400710D420208DF80000F8
:1005E000002609E0012300AA02A9404600F001FE0E
:1005F000002840F08580761CA642F3DB079E0DF1B3
:10060000500B0AE01BF8011B0498C0470490002817
:1006100076D00D98401C0D90761E002EF2D1302021
:100620008DF800004FF0000B0A9E09E0012300AA9C
:1006300002A9404600F0DDFD002861D10BF1010B5D
:10064000B345F3DB089EDDF814B00AE01BF8011B8C
:100650000498C0470490002852D00D98401C0D907B
:10066000761E002EF2D130208DF800004FF0000BE6
:100670000B9E09E0012300AA02A9404600F0B9FD43
:1006800000283DD10BF1010BB345F3DB0598089928
:10069000099E01EB000B09E01BF8011B0498C04701
:1006A000049068B30D98401C0D90761E002EF3D177
:1006B00030208DF800004FF0000B0C9E08E0012365
:1006C00000AA02A9404600F094FDC8B90BF1010B45
:1006D000B345F4DB9DF8400040077FF51CAD2020BA
:1006E0008DF80000002600E0761CA642BFF613AD90
:1006F000012300AA02A9404600F07BFD0028F3D0A8
:100700004FF0FF3025B0BDE8F08F00000000000082
:1007100000000000686A6C747A4C0000622826D0E1
:1007200068281DD06A2808D06C2827D0712804D0EA
:10073000742823D07A280CD020E00868C01D20F04F
:1007400007000860D0E90023083008601946104609
:1007500070470A680A6052F8040B0A60002170476B
:100760000A680A6052F8040B0A6000B20BE00A68DB
:100770000A6052F8040B0A6040B204E00A680A609A
:1007800052F8040B0A60C11770472DE9F44F0D466B
:1007900094B0D5F830B0BBF1000F804648BF6FF081
:1007A000004B00F0BFFD696B401801900FF68420EC
:1007B000D0E90023CDE9022395F83800400702D4A0
:1007C0000198412806D240200DF1100A01904FF007
:1007D000000909E000F0ACFD5FEA000AF7D14FF034
:1007E000FF3058E1ABEB040BBBF1010FC0F2CD8041
:1007F0001498018802AA0DF1010000F0F1FD002813
:10080000044600F1D5801498008810B9641E00F1E8
:10081000CF80A345C0F2B98068690199221891423E
:1008200080F0A180C5F834904042296A401AA96935
:10083000401A696A401AE969401AA96AA0EB0109DD
:1008400095F83800400710D420208DF800000026CD
:1008500009E0012300AA2946404600F0CAFC00280E
:1008600040F0A680761C4E45F3DB6E6957460BE0E0
:1008700017F8011BA868C047A860002800F09880FE
:10088000E86A401CE862761E002EF1D130208DF817
:10089000000000272E6A09E0012300AA29464046ED
:1008A00000F0A7FC002840F083807F1CB742F3DBF8
:1008B000AE69EF680AE017F8011BA868C047A86096
:1008C000002875D0E86A401CE862761E002EF2D13E
:1008D00030208DF8000000276E6A08E0012300AA8E
:1008E0002946404600F085FC002861D17F1CB742B4
:1008F000F4DBE868A969EE690F180AE017F8011B34
:10090000A868C047A860002852D0E86A401CE86286
:10091000761E002EF2D130208DF800000027AE6A3E
:1009200008E0012300AA2946404600F062FC0028A6
:100930003ED17F1CB742F4DB95F8380040070ED556
:1009400020208DF80000002607E0012300AA294698
:10095000404600F04EFC58BB761C4E45F5DB4FF090
:100960000009C5F81490224668690DF10101504450
:1009700000F044FD6869201868611498801C149088
:10098000801E008800287FF42DAF686B6969401ACB
:10099000296A401AA969401A696A401AE969401A25
:1009A000A96A471A95F83800400710D400240CE0D3
:1009B0004FF0FF3968E0A8682021C0470028A860F0
:1009C000F6D0E86A401CE862641CBC42F3DB6B6949
:1009D00052462946404600F00CFC0028E8D12C6A1B
:1009E000002609E0A8683021C0470028A860DFD0B1
:1009F000E86A401CE862761CA642F3DBAB69EA6851
:100A00002946404600F0F5FB0028D1D16C6A00264B
:100A100009E0A8683021C0470028A860C8D0E86A6B
:100A2000401CE862761CA642F3DBE868A969EB6922
:100A30000A182946404600F0DCFB0028B8D1AC6A11
:100A4000002609E0A8683021C0470028A860AFD080
:100A5000E86A401CE862761CA642F3DB95F8380091
:100A600040070DD5002409E0A8682021C0470028D0
:100A7000A8609DD0E86A401CE862641CBC42F3DBBD
:100A8000C5F81490C5F8349004A882451CBF5046A0
:100A900000F0F0FC484615B0BDE8F08F2DE9FA4EA5
:100AA00005460A462F696F2A08BF082405D041F081
:100AB0002000782814BF0A2410243C26D5E9000120
:100AC000642A18BF692A81468A4605D1002903DABB
:100AD000D9F100096AEB4A0ABAF1000F08BFB9F16F
:100AE000000F0CD1286B50B9082C36D195F838007E
:100AF000000732D530203B2687F83B002DE0E31776
:100B000048465146224600F0F5FCA4FB0023A9EB21
:100B100002023032D2B2A6F1010B3A2A5E4603DB62
:100B20009DF80030513B9A1881465FEA010A0BF8A4
:100B3000072008BFB9F1000F03D0E868F119884217
:100B4000DDD3082C09D195F83800000705D5F05DF4
:100B5000302802D0761E3020F055C6F13C00A86146
:100B6000F119E960296B884208DA081A28624FF601
:100B7000EF71288F08402887BDE8F38E00290ED535
:100B800095F8381001F01401102908D1696B6A69D1
:100B9000891A2A6A891A081A0128A8BF2862BDE89A
:100BA000F38E00002DE9F24F04468EB0D4E9000127
:100BB000CDE9020104AF9DF8380040F0200BBBF1F5
:100BC000610F0AD0206B002848BF062004D408BF5C
:100BD000BBF1670F01D1012020636168C1F30A50A6
:100BE00040F2FF7290421CD1080304BF2068002825
:100BF00009D10320A0619DF8380061381A2836D346
:100C00000FF2286108E00320A0619DF838006138E8
:100C10001A2829D30FF20C61E068032200F0EEFBE2
:100C2000BEE1012816DA204600F0DBFC012811DBCA
:100C300000250020BBF1610F20D1E168302201F8CE
:100C4000012B4A1CE2609DF83820612A0CBF7822F3
:100C500058220FE0626840F2FE3161F31E52451ADD
:100C600062604FF0FF30E5E70FF2B451D4E70FF2C6
:100C7000B851D1E70A706169891C616110B9002619
:100C8000002584E1BBF1610F40F09780206B0028C4
:100C90004CBF2126461CDDE90201D4E900AB00224D
:100CA000002300F0BFFC36B23ABF8BF00040CDE924
:100CB00002A0CDE902AB06F101082D1F8DF810202E
:100CC0000DF1110700E0C71DB8F1010F33DBDDE9BD
:100CD00002010022002300F0BDFC2CD21C2102A83E
:100CE00000F0D0FCDDE9020100F052FDA8F1070898
:100CF000B8F1010F814609DB00F076FD02460B4694
:100D0000DDE9020100F088FDCDE90201F81D0721AF
:100D100005E009F00F0200F8012D4FEA2919B9F199
:100D2000010F01DB491EF4D5491E5CBF002200F80B
:100D3000012DF9D5C7E70DF11100391AB142B8BF3D
:100D40000E4636B230000DF111072FD4884206DA74
:100D500004A9411849780829A8BF0F2100DA002109
:100D600004AA821800E0761E12F80139401E8B4258
:100D7000F9D00F2904D104A941184A78521C4A70AD
:100D8000002802D504AF761C2D1D36B2701E0DD47E
:100D9000C1190A783032D2B23A2A03DB9DF83830D2
:100DA0003A3B9A18401E01F80129F2D5206B002821
:100DB00040F1ED80701E2063E9E0DDE902010022D0
:100DC000002300F02FFC3CBF81F00041CDE902017F
:100DD0002DB247F2975068434B49DFF8309190FBB2
:100DE000F1F52DB2C5F1070ABAF1010F90461CDBEF
:100DF000DDE902675FEACA7007D542464B463046D6
:100E0000394600F0C9FD06460F464FEA6A0A4046D9
:100E1000494642464B4600F0BFFDBAF1000F8046FE
:100E20008946E7D1CDE9026724E0CAF1000A00262D
:100E3000374F14E05FEACA7007D542464B4630464A
:100E4000394600F0A9FD06460F464FEA6A0A4046B9
:100E5000494642464B4600F09FFD80468946BAF11E
:100E6000000FE7D1DDE9020132463B4600F066FEA5
:100E7000CDE90201BBF1660F216BDFF898900CBF42
:100E800005F10A0006204618142EA8BF13263020AC
:100E90008DF810000DF11107012E3DDBDDE9020197
:100EA00000F08CFC07F1080104220A23B0FBF3F3E5
:100EB00003EB8307A0EB4700303001F8010D0A2057
:100EC000B3FBF0F000EB8007A3EB47033033521E77
:100ED00001F8013DE9D1083E012E01F10807DBDBF5
:100EE000DDE9020100F06AFC00F088FC02460B46D6
:100EF000DDE9020100F090FC00224B4600F04CFDC1
:100F0000CDE90201CAE700BFA0860100000024402D
:100F10000000F03F84D797410DF11100381A0DF110
:100F2000110702E0401E6D1E7F1C39783029F9D070
:100F3000BBF1660F02D12DB2691C04E0BBF1650F55
:100F40000CBF01210021226B8E1836B2B042B8BF0F
:100F5000064636B231001AD4814204DAC85D35281B
:100F6000A8BF392000DA3020CA19521E00E0761ED0
:100F700012F80139491E8342F9D0392802D1C85DDF
:100F8000401CC855002902D57F1E761C6D1C2DB251
:100F90009DF83810009533B23A46204600F003F829
:100FA0000FB0BDE8F08F2DE9F04786B006468A46BF
:100FB00090461D4600F003FF406A376B90F80090A2
:100FC000012D02DA01250FF268284AF02000BDF950
:100FD0003840662808BF641C12D0672876D114F107
:100FE000040F79DBBC4277DA96F83800641C0007FE
:100FF00002D4BD42B8BF2F4624B23F1B48BF0027D2
:1010000024B2F068B169012C21DA4A1C30230B5458
:10101000012F03DA96F83810090702D502F800907C
:10102000521CE742B8BF7C4224B26142E719AF428A
:10103000B261B8BF3D4671622DB2F5612A46B3690F
:101040004146181800F0DAF9781BB062BAE00818C7
:10105000A54216DA2A46414600F0D0F9B16969186E
:10106000601BB161012F706203DA96F83800000747
:1010700005D5F06801F80090F069401CF061B76296
:10108000A0E02246414600F0B9F9B06920182D1BB6
:10109000012F03DA96F83810090703D5F16800F834
:1010A0000190401CB0612DB2AF42B8BF3D46F06820
:1010B000B3692DB22A4604EB0801181800F09EF916
:1010C000B0692818B061781B70627BE0BAF1610FDB
:1010D00014D14FF0700A16E0BD4204DA96F83810C9
:1010E000090758BF2F467F1E48BF0027BAF1670F78
:1010F00014BF4FF0450A4FF0650A04E0BAF1410F02
:1011000008BF4FF0500AB169F06818F8013B0B5462
:101110004A1C012F05DA96F83810090758BFB2614A
:1011200015D502F80090531C012FB3610FDB6D1E23
:101130002DB2AF42B8BF3D462DB22A4641461818DF
:1011400000F05CF9B0692818B061781B7062F06833
:10115000B16901EB0008200008F801AB03D42B2093
:1011600008F8010B03E02D2108F8011B644200255B
:1011700002AF08E00A2200A800F03AFE019807F842
:10118000010B6D1C009C21B20129F3DA022D06DA55
:101190004AF02000652804BF302008F8010B4DB943
:1011A000302008F8010B07E06D1E02A8285C3030E3
:1011B00008F8010B012DF7DAF068B1690818A8EBFF
:1011C0000000F06196F8380000F0140010280DD1EE
:1011D0007069B1690818716A0818F1690818B16A6C
:1011E0000818716B8842BCBF081A306206B0BDE8AF
:1011F000F087F8B504460D4616461F46002004E069
:10120000E86A401CE8627F1E002047B116F8011B07
:10121000A868A047A8600028F2D14FF0FF30F2BDC7
:101220006E616E004E414E00696E6600494E46008A
:10123000300000000000000000000000F8B5044687
:101240000D4616461F4600F0DBFD3B46324629465A
:10125000204601B0BDE8F04000F0E9BD0278C9B217
:101260008A421AB11CBF10F8012FF9E718BF0020FD
:10127000704750F8041B61B150F8042BD30744BFEA
:10128000A9F101039A180023091F42F8043BFAD17F
:10129000EFE7704700F10103810704D010F8011B4C
:1012A00089B18107FAD10268B2F10131914311F09D
:1012B000803F04BF50F8042FF6E710F8011B11B16E
:1012C00010F8011BFBE7C01A70470000C9B2830782
:1012D00006D0521E22D310F8013B9942F7D11FE0ED
:1012E000083A13D302F1040241EA012141EA014123
:1012F00050F8043B121F21BF4B40A3F1013C2CEAE4
:10130000030C1CF0803FF3D0C9B2001F083210F864
:10131000013B521E28BF91EA030FF8D818BF0120E5
:10132000401E704780B500F06BFD012002BD00003B
:1013300070B5054605F10F00C408E400C046C0467C
:10134000A54232D2082C04D2082402E0083000F072
:1013500091F82248026811000CD1011D0A6802B3FD
:101360001368A34238BF111DF8D310E01D68A542D1
:101370000DD2191D0B68002BF8D11268011D00E079
:10138000191D0B6893420CD01D68A542F8D361B1BA
:101390000D682A68A2F10803A3420AD26A680A60AB
:1013A0000FE000F067FD0028D0D1C046C046002005
:1013B00070BD63190B60121B6E685E600B681A606B
:1013C0002C60096800291DBF4A68002A091D0021F8
:1013D0000160C046C04605F1080070BDCC03002086
:1013E00070B504460D46164600F00AFD3246294601
:1013F0002046BDE8704000F00DBD000062B38B07D1
:1014000008D0521E11F8013B00F8013B00F0248087
:101410008B07F6D1830740F0208000BF103A07D336
:1014200030B4B1E83810103AA0E83810F9D230BC26
:10143000530724BFB1E80810A0E8081044BF51F8D2
:10144000043B40F8043BD20724BF31F8022B20F8BC
:10145000022B44BF0B7803707047083A07D3B1E8FA
:101460000810083A40F8043B40F804CBF7D2530781
:10147000E4E7000000B9704738B5A0F1080420681F
:10148000082833D310F0070F30D1C046C0461848A3
:10149000416809B18C4203D26160446017E019468B
:1014A0004B680BB1A342FAD30B685D18AC421BD357
:1014B000A54204D12268D2180A600C4607E04A68A7
:1014C0001AB123681B199A420ED362604C6061689E
:1014D00051B1226813198B4206D1002303600868BA
:1014E0008018206048686060C046C04631BD00007A
:1014F000CC0300201B4213D1094236D12AB18446C5
:10150000B0FBF2F002FB10C2704700F0C9BCFCD384
:101510000022002370470B000200002100207047CA
:10152000904271EB030CF6D370B5B1FA81F4B3FAC3
:1015300083F52C1BA340C4F1200532FA05F6334392
:10154000A2405FF00046E64002E05B085FEA32023C
:10155000841A71EB030524BF204629467641F4D353
:1015600002000B003000002170BD012ACFD970B5F8
:10157000140C20D0B1FA81F4B2FA82F5C4F120043F
:101580006419B4F12006D6D3B2405FF00044F440B1
:10159000002502E052085FEA3303C61A71EB020E1F
:1015A00024BF3046714664416D41F3D302000B0005
:1015B0002000290070BD0C46B1FBF2F102FB114581
:1015C0002D0445EA1045B5FBF2F402FB145580B238
:1015D00040EA0545B5FBF2F002FB105240EA044038
:1015E00070BD30B4436803F0004201211B031B0BA4
:1015F000436004BF0368002B08D10DE00368DD0FD2
:1016000045EA440444605B000360491E4468E30209
:10161000F4D523031B0B436043681A43426008461A
:1016200030BC70474FF4001C1CEB410F94BF1CEB07
:10163000430F09E041EA030C50EA4C0C52EA0C0C4F
:1016400003D2994208BF9042704714BF8B42824236
:10165000704700004FF4001C1CEB410F94BF1CEBC3
:10166000430F09E041EA030C50EA4C0C52EA0C0C1F
:1016700003D28B4208BF8242704714BF9942904206
:101680007047000070B504460D466068C0F30A500C
:1016900040F2FF71884207D16068000304BF2068F0
:1016A000002817D0022070BD20B92046FFF799FF0F
:1016B000012867DA012D0FDB40F2FF71091A8D4214
:1016C0000AD36068002847BF00202F4900202F4917
:1016D000C4E90001012070BD4142A942616806DAF7
:1016E0006FF31E51401941EA0050606041E0401E16
:1016F00063684519012205F1350062F31F5335284F
:1017000001F00041636003D361600020206070BD80
:10171000002215F11F0F04DA226823600020203513
:101720006060684213D0521E25689241C0F12003C8
:10173000D2439D4045EAD27225686668C54006FAE4
:1017400003F32B432360636823FA00F06060606852
:101750000843B2F1004F606003D80DD12078C00774
:101760000AD52068401C2060206828B96068401CA9
:1017700060604FF0FF3070BD6068884204BF206831
:101780000028F6D1002070BD0000F0FF0000F07FBF
:10179000F446400D40EAC120490006D200F014F89A
:1017A000004248BF6FF00040604700F00DF84FF076
:1017B000004188428CBF084640426047400D40EAE5
:1017C000C120490080F00D8040F00040490DA1F596
:1017D0008061491C05D4D1F11F0154BFC840C01716
:1017E00070474FF000007047010040F10980F44657
:1017F000404200F005F851F000416047010000BF91
:1018000009D0B0FA80F18840C91CC1F5846109058E
:1018100001EBD0214005704770B44FF0004591EACC
:10182000030F44BF6B4000F03DBB00BF841A71EB57
:10183000030604D26E40001BB141121973414FF4EC
:10184000001C1CEB410F34BF7CEB430684E00C0D05
:10185000A4EB1356362E7DDC012E43DC45EAC32370
:1018600043EA525312BFD20292025B08240545EAB2
:10187000C12141EA5051D2EBC020994125D407D172
:10188000B0FA80F610FA06F164D00020203608E0A5
:10189000B1FA81F6B140C6F1200220FA02F21143FA
:1018A000B0404FEAF474B4EB465434F001064FEA0A
:1018B00074040AD8D6F50016760D04F00044F04002
:1018C00061FA06F25040F1404840C00A40EA4150F7
:1018D00021F0004128BF5FEA500550F1000044EBC1
:1018E000D12137E045EAC323DB0A45EAC121C90A11
:1018F000B6F120050EDD42EA0242120CC5F12006C7
:1019000003FA06F6EB4042EA06056D42984161F1A2
:1019100000010DE062FA06F5F240554063FA06FC5C
:1019200082EA0C02F3405A406D42904161EB0301A0
:1019300011F4801F05D1641E620502D06D00404184
:10194000494121F48011430875F1004350F1000032
:1019500041EB045170BC70471CEB410F15D223F0D2
:10196000004352EA43060BD04FEA4C0CBCEB410F4C
:1019700004D80C0D661E342EB7DDEBE7801A9941B2
:1019800050EA410608BF0021E4E708BF1CEB430F03
:1019900028BF6FF00001DDE7B0B581EA030C0CF061
:1019A000004C40F2FF7515EA11541DBF15EA13579C
:1019B000AC42AF4239E0E41923EA455343F48013C3
:1019C000C90241F0004141EA505EC7021100A7FB85
:1019D000020200284FF00000EEFB01204FF0000152
:1019E000E3FB072118BF42F00102401800214941E2
:1019F000E3FB0E01A4F580640F0302D252004041C4
:101A0000494154F101046CDD470872F1004250F184
:101A1000000051EB0451A1F580115CBF41EA0C01BB
:101A2000B0BD4CEA05510020B0BD05EA1357AC42E9
:101A300014BFAF4241E050EA410E1CBF52EA430ED0
:101A400002E061460020B0BD24423C441BD15FEA65
:101A5000070EF6D0090302BF01460020AEF1140EB6
:101A6000B1FA81F7AEEB070401FA07FE0C37C7F1B4
:101A7000200100FA07F7C8404EEA000E23EA45535A
:101A800043F48013A2E733F00043B3FA83F704BFB3
:101A9000B2FA82FE77440B3FE41BB7F1200E2FBF52
:101AA00002FA0EF3BB40C7F1200E22FA0EFE38BF39
:101AB00043EA0E03BA40641C82E750EA410E14BFA9
:101AC00052EA430E6FF000014FF4001717EB430F7B
:101AD0008ABF194617EB410FB5E74CEA05510020C4
:101AE000B0BDD4F10104B4F120070FDAC4F120072E
:101AF000520828BF42F0010210FA07F501FA07F771
:101B0000E1BF2A43E0403843E1400FE0352C98DC48
:101B1000C7F1200452EA400220FA07F218BF42F04F
:101B2000010231FA07F0A1400A43002172F100429C
:101B300050F1000051EB0C01B0BD0000F0B540F2D7
:101B4000FF7581EA030C0CF0004C15EA11541DBF1F
:101B500015EA1357AC42AF42E5E0BC41C1F31301B3
:101B6000C3F31303801A994143F4801304D2641E13
:101B70004000494180185941C90241EA5051B1FB26
:101B8000F3F603FB1611A2FB0675D7EBC020A941A3
:101B900002D2761E80185941C90241EA5051B1FB68
:101BA000F3FE03FB1E11A2FB0E75D7EBC020A9416B
:101BB00003D2AEF1010E80185941890241EA9051D9
:101BC000760546EA8E2EB1FBF3F603FB1611A2FB57
:101BD0000675D7EB8020A94102D2761E80185941A4
:101BE000C90241EA50514EEA060EB1FBF3F603FB7F
:101BF0001611A2FB0675D7EBC020A94102D2761EB2
:101C000080185941C90241EA5051B1FBF3F703FB77
:101C10001711A2FB0735D3EBC020A94167F10007DC
:101C20000CBF004247F0010766F3D5274FEA1E318B
:101C3000B80814F5806412DDBD0775F1004250EB61
:101C40000E5051EB045111F5801F5CBF41EA0C01AD
:101C5000F0BD4CF07F6141F0E0410020F0BDBD07D8
:101C60006D0840EA0E5041F48011D4F10104B4F142
:101C700020060ADAC4F120060200E04001FA06F369
:101C8000E1401843B24015430EE0342C13DCC6F19A
:101C9000200445EA40056D0820FA06F2154321FAB2
:101CA00006F0A1400D43002175F1004250F1000003
:101CB00051EB0C01F0BD00205FEA0C01F0BDCFB983
:101CC00092185B41B3FA83F704BFB2FA82F6BF19E8
:101CD0000B3FB7F120062FBF02FA06F3BB40C7F156
:101CE000200622FA06F638BF3343BA401CB1E41985
:101CF000641E33E77F4231F00041B1FA81F404BF42
:101D0000B0FA80F6A4190B3CB4F120062FBF00FAFC
:101D100006F1A140C4F1200620FA06F638BF31438F
:101D2000A0403C1B1AE7AC421ABF05EA1357AF426A
:101D300012E050EA41061CBF52EA4306BFE750EAF0
:101D40004107304661461CBF41EA0551F0BD52EAE9
:101D5000430C08BFC143F0BD00204FF4001616EB42
:101D6000410F98BF16EB430F08BF16EB410F24BF7E
:101D7000C14305E016EB430F0CBF61464CEA055129
:101D8000F0BD000080B5134800F0F6F80FF24801EE
:101D9000016041608160C1600161416181610FF258
:101DA0003C0242628162C162016341630FF2300210
:101DB00082630FF23402C2630164416401BD10B555
:101DC000044800F0D9F80446206808B9FFF7DAFFA4
:101DD000204610BD00000020000000002E00000082
:101DE00066616C7365000000747275650000000028
:101DF00091FBF2F303FB1211C0E9003170470000C0
:101E000080B5DFF80C0000F0B7F8806902BD000073
:101E10009000002030B430B90FF24800D0E90045FE
:101E2000C2E900451BE00170012030BC704730B4AE
:101E300031B90FF23800D0E90045C3E900450EE0A2
:101E40001AB930BC6FF00100704708B10A780280FF
:101E50000978481E804130BCC043C00F7047002045
:101E600030BC7047000000000000000000000000CF
:101E7000000000000749086808B1002070470648C4
:101E8000C008C00008600549C908C900091A0160F6
:101E9000704700BFD4030020EF130020E823002088
:101EA00070470000841A71EB030603D2001BB14196
:101EB000121973414FF4001C1CEB410F34BF7CEB33
:101EC000430443E00C0DA4EB1356352E50DC45EAD9
:101ED000C323DB0A45EAC121C912B6F120050DDD95
:101EE00063FA05F6EB4086EA0305124218BF45F097
:101EF0000105C01851F100010CD213E062FA06F599
:101F0000F2405540F3415A40B340F3405A408018E4
:101F1000594107D349085FEA30005FEA350528BF19
:101F200045F0010501F58011420875F1004250F1BC
:101F3000000041EB045170BC4FF4001C1CEB410F3E
:101F400038BF70470020090D090570471CEB410F91
:101F500010D252EA43060BD0BCEB410F05D80C0D52
:101F6000AB43661E342EB5DD02E0AB438018594109
:101F700070BC704770BC70477047000030B40023DD
:101F80000023002403E0E4B2655C6B40641CE4B20F
:101F9000D2B29442F7D341784B4081784B40C0781D
:101FA00043401800C0B230BC704710B40022012377
:101FB00003E0DBB21C5C62405B1CDBB2C9B28B424B
:101FC000F7D31000C0B210BC704770B514000422E3
:101FD0000025FF23DFF8686333700023DFF86063B8
:101FE0007370DFF85C33D870A4B2002C38D00020B6
:101FF00005E0DFF84C63D2B29355521C401CA4B2EA
:10200000A0422DDA435CDBB2FF2B0BD17F23CC4EF9
:10201000D2B29355521CFD23C94ED2B29355521CD5
:102020006D1CEBE7DBB2FE2B0BD17E23C44ED2B28C
:102030009355521CFD23C24ED2B29355521C6D1CB7
:10204000DCE7DBB2FD2BD4D17D23BD4ED2B293555C
:10205000521CFD23BA4ED2B29355521C6D1CCDE7D3
:102060002819801CB64A9070B548A4B2EDB22A195E
:1020700016182200D2B2B248FFF780FF3071B04884
:10208000A4B2EDB229190818FE214171A4B2EDB233
:102090002819811DAA4800F012FA0025012070BD00
:1020A0002DE9F843040000255FF00008002000201F
:1020B000A448002801D1FF2085E0A34800F0E7FAFA
:1020C000D0F19600C0B2052801DA01207BE000269D
:1020D00001E0B946761CC82E74DA9A48375CFFB224
:1020E000FF2F07D15FF001083000FF20EDB2285527
:1020F0006D1C40E05FFA88F8B8F1010F3BD1FFB2E8
:10210000FD2F0FD15FFA89F9B9F17F0F0AD16D1E4A
:10211000FF20EDB228556D1C8C480078401C8B497F
:10212000087028E0FFB2FD2F0FD15FFA89F9B9F1ED
:102130007E0F0AD16D1EFE20EDB228556D1C83481E
:102140000078401C8149087015E0FFB2FD2F0FD1C7
:102150005FFA89F9B9F17D0F0AD16D1EFD20EDB24C
:1021600028556D1C79480078401C7849087002E0B9
:10217000EDB22F556D1CEDB2052DAADBA07861786C
:1021800010EB01195FFA89F919F10400EDB26F49FA
:102190000978491988429CD119F10201C9B220007D
:1021A000FFF703FF5FFA89F919EB04018978C9B2D7
:1021B000C0B281428DD128000021644A11700025EF
:1021C000C0B200E00020BDE8F28380B500208DF8A9
:1021D0000000002200A90120FFF7F7FE012002BD48
:1021E00080B500208DF80000002200A90220FFF732
:1021F000ECFE012002BD80B500208DF80000002219
:1022000000A90420FFF7E1FE012002BD00B591B056
:1022100000A84F494122FFF7F1F8402200A903200E
:10222000FFF7D3FE012011B000BD10B500214648D4
:1022300000F013FA96210022424C200000F064FACC
:1022400096204449086001213F4800F006FA10BD7D
:1022500030B599B0040000200025C8203E48007821
:10226000002801D1FFF7BCFF3B480078012801D1CD
:10227000FFF7ABFF00A8FFF713FF0500EDB2002D3D
:1022800053D0FFF7D2FF9DF80300C0B201280DD054
:1022900002283FD0802802D0822806D045E00422C0
:1022A00021008320FFF791FE3FE03EE09DF804000F
:1022B000002806D19DF80500002802D1FFF79BFFFA
:1022C00027E09DF8040001280CD19DF805000128A5
:1022D00008D1042221008420FFF777FE03201E4945
:1022E000087016E09DF80400012807D19DF805004C
:1022F000002803D10220184908700AE09DF8040064
:10230000022806D19DF80500002802D104201249B8
:1023100008700AE09DF80400002802D1FFF776FF5C
:1023200002E001200C490870FFE7EDB2002200AC8A
:102330002900200000F0E8F9012019B030BD0000AC
:10234000580100202002002058000240DF03002036
:102350004C3600085C000240E003002000B58DB060
:102360000121012000F0F6FA0021634800F075F920
:10237000614800F0CFF896206049019160490291D0
:102380001021039180B204900020059080200690D7
:102390000020079000200890002009904FF4805002
:1023A0000A9000200B9001A9534800F038F94FF42F
:1023B000805000F06FF900214F4800F04EF90122E3
:1023C00002214D4800F057F900214E4800F045F930
:1023D0004C4800F09FF89620484901914A490291E3
:1023E0000021039180B20490002005908020069087
:1023F0000020079000200890002009904FF48050A2
:102400000A9000200B9001A93E4800F008F95FF403
:10241000803000F03FF901213A4800F01EF9012216
:102420000221384800F027F90E208DF80000002026
:102430008DF8010002208DF8020001208DF80300C4
:1024400000A800F0F5FA0F208DF8000000208DF8AC
:10245000010002208DF8020001208DF8030000A881
:1024600000F0E6FA0DB000BD80B50020002125483F
:1024700000F0F3F85FF4803000F00CF9214800F030
:1024800006F9D0F1960096202049086001211D48E8
:1024900000F0E3F801BD80B54FF4005000F002F900
:1024A000002801D000F001F801BD80B54FF4805044
:1024B00000F0F0F80021104800F0CFF801BD10B591
:1024C0000C00002802D15FF0FF300BE0002103E098
:1024D0000A5C0B4BCA54491CA142F9D3200000F0FE
:1024E00002F8200010BD80B50949086001210248AA
:1024F00000F0B3F801BD0000440002400438014080
:10250000B802002058000240200200205C00024077
:102510004800024001684FF6FE7211400160002140
:10252000016000214160002181600021C160664995
:10253000884206D16548006850F00F006349086082
:102540006CE06349884206D16048006850F0F000B2
:102550005E49086062E05F49884206D15B480068D6
:1025600050F470605949086058E05B49884206D1D0
:102570005648006850F47040544908604EE057498E
:10258000884206D15148006850F470204F490860D5
:1025900044E05349884206D14C48006850F470002A
:1025A0004A4908603AE04F49884206D147480068E6
:1025B00050F070604549086030E04B49884206D1D0
:1025C0004A48006850F00F004849086026E0484932
:1025D000884206D14548006850F0F0004349086041
:1025E0001CE04449884206D14048006850F47060BD
:1025F0003E49086012E04049884206D13B480068E5
:1026000050F470403949086008E03C49884205D1DF
:102610003648006850F4702034490860704710B4A0
:10262000002202686FF30E128B680C6A23430C6958
:1026300023434C6923438C692343CC6923434C6A6D
:1026400023438C6A23431A430260CA6842600A68C3
:1026500082604968C16010BC7047C9B2002904D0CB
:10266000016851F00101016004E001684FF6FE725B
:10267000114001607047D2B2002A03D002681143B2
:10268000016003E0026832EA0101016070474068BE
:1026900080B27047C10002D51449086001E00B49BF
:1026A0000860704700210021C10002D51449096863
:1026B00001E014490968014201D0012100E0002134
:1026C0000800C0B270470000080002400400024049
:1026D0001C0002403000024044000240580002400A
:1026E0006C000240800002400804024004040240E2
:1026F0001C040240300402404404024058040240DA
:10270000000402400000024062F30F2262F31F4205
:10271000401810F0030308D0C91A1FD3DB0748BFC5
:1027200000F8012D28BF20F8022D130030B4144604
:102730001546103928BF20E93C00FAD8490728BFC0
:1027400020E90C0048BF40F8042D890028BF20F87C
:10275000022D48BF00F8012D30BC7047C91818BFC2
:1027600000F8012DCB0728BF00F8012D70470000AD
:10277000DFF88002006850F00100DFF8781208608E
:10278000DFF874020068DFF874120840DFF868129E
:102790000860DFF860020068DFF864120840DFF8C4
:1027A00054120860DFF84C02006830F48020DFF833
:1027B00044120860DFF84002006830F4FE00DFF8E1
:1027C000381208605FF41F00DFF8381208607047A5
:1027D000DFF82012096831F48031DFF81822116027
:1027E000DFF81012096831F48021DFF80822116047
:1027F000B0F5803F03D0B0F5802F09D011E0DFF8AD
:10280000F401006850F48030DFF8E811086008E057
:10281000DFF8E001006850F4A020DFF8D81108606C
:10282000FFE770470022744A126832F47C120843B2
:102830000243714802607047C0B273490860704734
:1028400000216D4909688908890001436A480160CF
:1028500070476948006810F00C0070470021664915
:10286000096831F0F00101436348016070470021BD
:102870006149096831F4E06101435F4801607047D4
:1028800000215D49096831F4605151EAC0015A489C
:10289000016070470021002100220021564909688B
:1028A00011F00C01002904D0042905D0082906D014
:1028B00021E05749016020E0554901601DE04E4983
:1028C000096811F470114C4A126812F48032890CB4
:1028D000891C002A03D14F4A514301600AE0464A4D
:1028E0001268920303D54B4A5143016002E0484A03
:1028F0005143016001E0464901603F49096811F018
:10290000F0010909444A895C026832FA01F1416028
:102910003949096811F4E061090A3F4A895C426853
:1029200032FA01F181603449096811F46051C90A31
:10293000394A895C426832FA01F1C1602E4909685E
:1029400011F44041890B354A895CC268B2FBF1F150
:1029500001617047C9B2002905D0314909680843AF
:102960002F49086005E02E49096831EA00002C492A
:1029700008607047C9B2002905D02A490968084390
:102980002849086005E02749096831EA000025491F
:1029900008607047C9B2002905D023490968084377
:1029A0002149086005E02049096831EA00001E4914
:1029B00008607047002100220021C0B24109C9B25D
:1029C000012902D10B490A6806E0022902D10F4908
:1029D0000A6801E015490A68C0B210F01F0132FA16
:1029E00001F0C00701D5012100E000210800C0B2BC
:1029F0007047000000100240041002400000FFF881
:102A0000FFFFF6FE08100240600042422010024024
:102A100000127A0000093D003C0100205001002016
:102A200014100240181002401C10024024100240F2
:102A3000002100220F23C17800291DD01449096804
:102A400011F4E061D1F5E061090AD1F10402CB4053
:102A50004178914082781A40114309010D4A037868
:102A600099540121027812F01F0291400A4A00781D
:102A7000401142F8201009E00121027812F01F02F3
:102A80009140064A0078401142F82010704700003B
:102A90000CED00E000E400E000E100E080E100E097
:102AA00080B501210420FFF765FF01210120FFF718
:102AB00061FF01214FF48040FFF75CFF4FF400708D
:102AC000ADF8000018208DF8030003208DF80200F7
:102AD00000A98A4800F01EF94FF48060ADF80000AC
:102AE00004208DF8030000A9844800F013F90121A7
:102AF0000420FFF73FFF01215FF40030FFF74AFF9A
:102B000001210120FFF736FF0420ADF80000182056
:102B10008DF8030003208DF8020000A9774800F02B
:102B2000F9F80820ADF8000004208DF8030000A992
:102B3000724800F0EFF801211020FFF71BFF012180
:102B40005FF48020FFF726FF01210120FFF712FF2D
:102B500001216B4800F03EF94FF48060ADF80000B1
:102B600018208DF8030003208DF8020000A96548A5
:102B700000F0D0F84FF40060ADF8000004208DF8AC
:102B8000030000A95F4800F0C5F801BD00B585B09D
:102B90004FF4165000900020ADF804000020ADF86E
:102BA00006000020ADF808000020ADF80C000C2055
:102BB000ADF80A0000A9544800F050F9012152482C
:102BC00000F0ACF9012280214F4800F0DEF901222B
:102BD00040214D4800F0D9F94FF4165000900020E4
:102BE000ADF804000020ADF806000020ADF80800A4
:102BF0000020ADF80C000C20ADF80A0000A94348F5
:102C000000F02CF90121414800F088F901228021CF
:102C10003E4800F0BAF9012240213C4800F0B5F9E5
:102C20005FF4E13000900020ADF804000020ADF822
:102C300006000020ADF808000020ADF80C000C20C4
:102C4000ADF80A0000A9324800F008F9012240F26C
:102C500025512F4800F070F901212D4800F05EF950
:102C600040212B4800F0B2F905B000BD80B5252009
:102C70008DF8000000208DF8010000208DF8020082
:102C800001208DF8030000A8FFF7D2FE26208DF862
:102C9000000000208DF8010001208DF802000120C5
:102CA0008DF8030000A8FFF7C3FE27208DF8000071
:102CB00000208DF8010001208DF8020001208DF820
:102CC000030000A8FFF7B4FE01BD80B5FFF7E8FEE2
:102CD000FFF75CFFFFF7CAFF01BD10B5040021003C
:102CE000C9B289B2084800F05CF98021064800F0BA
:102CF00060F90028F9D0200010BD00000008014054
:102D00001000140000100140003801400044004051
:102D10000048004070B40022002500230026002453
:102D20000025CA7812F00F02CB78DB0601D58B782C
:102D30001A430B781B0621D00468002306E0CD78E7
:102D4000482D02D101259D4005615B1C082B14D242
:102D5000012515FA03F60D883540B542F5D19E00E0
:102D60000F25B540AC4312FA06F52C43CD78282D3B
:102D7000E5D101259D404561E7E704600B88FF2B05
:102D800026DD4468002320E0012513F1080615FA2A
:102D900006F60D883540B54216D19E000F25B54088
:102DA000AC4312FA06F52C43CD78282D04D1012529
:102DB00013F10806B5404561CD78482D04D10125B1
:102DC00013F10806B54005615B1C082BDCD3446099
:102DD00070BC704730B40022002400230024002877
:102DE00002D51C4A136801E01B4A1368C0F3034470
:102DF00082B210F44015B5F5401F08D133F070636E
:102E0000154C246834F07064134D2C6010E0C5023A
:102E100006D5032515FA04F4A34353F0706307E0C5
:102E2000440DE4B2240112FA04F4A34353F0706396
:102E3000C9B2002905D0410DC9B2090112FA01F148
:102E40000B43002802D50348036001E002480360F9
:102E500030BC70471C0001400400014070B586B0D2
:102E600004000D0000200020002100210026A88978
:102E700000282600208A4CF6FF710840E9880843A4
:102E80002082A0894EF6F3110840A9882A891143AF
:102E90006A8911430843A081A08A4FF6FF41084088
:102EA000A9890843A08200A8FFF7F4FC1A488642CB
:102EB00001D1039800E00298A189090406D51921DF
:102EC000484329684900B0FBF1F105E01921484366
:102ED00029688900B0FBF1F16420B1FBF0F000013A
:102EE0000209642303FB1211A289120408D5C90048
:102EF00032316422B1FBF2F111F00701084307E01F
:102F0000090132316422B1FBF2F111F00F010843E3
:102F1000208106B070BD000000380140C9B2002910
:102F200004D0818951F40051818104E081894DF6FA
:102F3000FF7211408181704730B4002300240024C7
:102F4000002589B240F66A13994205000800C0B214
:102F50004309DBB289B211F01F04012010FA04F416
:102F6000012B01D10C3504E0022B01D1103500E01A
:102F70001435D2B2002A03D028682043286002E02A
:102F80002868A043286030BC7047D2B2002A03D022
:102F9000828A1143818203E0828A32EA01018182BE
:102FA0007047C905C90D818070478088C005C00D74
:102FB0007047002289B2B1F5007F0088084201D035
:102FC000012200E000221000C0B2704789B28A05D9
:102FD00089B2C9430180704710B400220023002247
:102FE000002289B240F66A1291420A00D2B2520916
:102FF000D2B289B211F01F03012414FA03F3012A9B
:1030000002D18289134006E0022A02D1028A1340CB
:1030100001E0828A134089B20A0A92B2012111FAB0
:1030200002F200880240002B03D0002A01D00122C6
:1030300000E000221000C0B210BC70470022002245
:1030400089B240F66A12914289B20A0A012111FA44
:1030500002F292B2D14301807047000080B54E4821
:10306000006850F001004C4908604C4800684C4929
:1030700008404A490860484800684A4908404649AB
:1030800008604548006830F48020434908604348A0
:10309000006830F4FE00414908605FF41F004249B7
:1030A000086000F005F85FF000604049086001BD6D
:1030B00080B500F001F801BD82B000200190002031
:1030C00000903548006850F4803033490860324839
:1030D000006810F4003000900198401C01900098A6
:1030E000002803D10198B0F5A06FF0D12A480068FC
:1030F000800302D50120009001E00020009000989C
:10310000012845D12A48006850F01000284908607D
:103110002748006880088000254908602448006826
:1031200050F00100224908601C4800681B490860F3
:103130001A4800681949086018480068174908606B
:103140001648006830F47C10144908601348006881
:1031500050F4F810114908600F48006850F0807072
:103160000D4908600C4800688001FBD50B480068D9
:1031700080088000094908600848006850F0020093
:10318000064908600548006810F00C000828F9D1CD
:1031900002B070470000000000100240041002401E
:1031A0000000FFF8FFFFF6FE0810024008ED00E007
:1031B0000020024040B2002808D50901484A40B228
:1031C00010F00F00801800F8041C03E00901454AC4
:1031D00040B28154704780B5B0F1807F01D30120A7
:1031E00010E00002000A401E3F4908600F215FF016
:1031F000FF30FFF7DFFF00203C49086007203C4913
:103200000860002002BD80B5142004E00021394A86
:10321000C0B28154401EC0B20028F7D1142004E08F
:10322000FF21344AC0B28154401CC0B22028F7DBD1
:103230003148006842F21071B0FBF1F0FFF7CBFFAC
:1032400000202E49488001BD2C4880682C498842C6
:1032500003D300202949886004E028488068401C86
:10326000264988602548408842F21071884208D17A
:1032700000202249488021484068401C1F4948607E
:1032800004E01E484088401C1C494880142019E076
:103290001849C0B2411811F8011C002911D0154974
:1032A000C0B2411811F8011CFF290AD01149C0B25F
:1032B000411811F8011C491E0E4AC0B2821802F8CA
:1032C000011C401EC0B20028E2D1704780B50948F9
:1032D0000078002803D100F015F806490870F6E7D9
:1032E00018ED00E000E400E014E000E018E000E089
:1032F00010E000E0A003002054010020C0030020E3
:1033000081EE360080B521480078102817D01828A3
:1033100036D00020002000201D4908801C4800886D
:10332000002818D100201B4908801A480088B0F5F1
:103330007A7F0ADA1020154908700A2002BD154864
:103340000088401C13490880EFE711480088401CA2
:103350000F490880E2E710480088401C0E490880A9
:103360000E48FEF775FF00200A49088009480088CA
:10337000B0F5C87FEFDA1820044908700A20DDE7AD
:1033800004480088401C03490880EFE7DE03002062
:10339000DA030020D8030020DC0300204C010020C9
:1033A000816807E002681168536889185B18C36078
:1033B00008320260C2689142F4D04A1C82600878E8
:1033C00070472DE9FF4D00F10801009100270268C8
:1033D000520801EBC2010191B8460021029103910C
:1033E0000168490800EBC101406800F0010501F1E6
:1033F0000804400804EBC00631E000A8FFF7D0FF46
:103400004FFA80FA0AE000980168081800990290C3
:1034100049680818039000980830009002980399B2
:103420008842F0D0401C029010F801BD47450CD1F5
:10343000B44208BF00F01DF8276805B14F4460682A
:1034400000EB070808344745F2D0BAF1000F07F83F
:1034500001BB0AD51AF1010AE8D14745CDD1B442E2
:10346000CBD1304604B0BDE8F08DBAF1010AD5D514
:10347000F3E7012000F000B880B5C046C046024A1C
:1034800011001820ABBEFBE7260002007047FEE7E4
:10349000FEE7FEE7FEE770477047704780B5FFF72D
:1034A000D3FE01BD80B540F225511A48FFF794FDC7
:1034B000002812D040F225511648FFF7BFFD1548ED
:1034C000FFF773FD010089B21248FFF76AFD802102
:1034D0001048FFF76EFD0028F9D001BD80B540F21D
:1034E00025510D48FFF778FD002812D040F22551F4
:1034F0000948FFF7A3FD0848FFF757FD010089B20F
:103500000548FFF74EFD80210348FFF752FD0028D4
:10351000F9D001BD003801400048004080B50120CD
:1035200000F006F8002802D0012000F013F801BDD9
:1035300000210D49098801400A4A128892B20242CC
:1035400004D0C9B2002901D0012100E00021080007
:10355000C0B270470449098831EA00000249088076
:1035600070470000002800400428004080B5FFF7A5
:10357000FFF80020FFF72CF9102000F02CF80220B3
:1035800000F01EF80020FFF769F90020FFF778F936
:103590000020FFF76CF95FF4E0110020FFF742F91B
:1035A0000120FFF749F93920FFF704FA0028FAD083
:1035B0000220FFF745F9FFF74CF90828FBD101BDC0
:1035C0000021DFF83410096811F038010143DFF8F9
:1035D000280001607047DFF82010096831F0100101
:1035E000DFF814201160DFF8101009680843DFF8D5
:1035F00008100860704700000020024080B50021DC
:103600001048FFF72AF85FF48010FFF743F8962080
:103610000D49086001210B48FFF71FF801BD80B577
:103620005FF00070FFF73EF8002807D05FF0807071
:10363000FFF730F800210248FFF70FF801BD000046
:10364000800002406C00024070000240313630665B
:1036500061366231366661633033653931363066E2
:1036600061366231366661633636303139656132D2
:103670006237393433313136326434646665383810
:10368000663239626638376532653365000000009E
:1036900010B5074979441831064C7C44163404E0CF
:1036A0000A68081D511888470146A142F8D110BD8B
:1036B000500000007800000080B5FFF757FFFFF7CB
:1036C000A2FDFFF702FBFEF749FE034800F006F8F3
:1036D000FFF7FCFD01BD00BF7C3700080EB400B54C
:1036E00082B003A90091024600AB0121034878444F
:1036F0000A30FCF7FBFC06BC5DF810FB5F00000025
:1037000073DBFFFF8C020000580100200000000066
:10371000B3FCFFFF02000000020000006001000097
:1037200048000000000000205801000000F00BF8E5
:10373000002801D0FFF7ACFF0020C046C046FFF7CD
:10374000BBFF00F002F80120704700F001B8000054
:1037500007463846FFF790FEFBE738B504460D46AE
:10376000284600F005F8A84218BF0024204632BDC4
:103770000149FFF7B2BA00BFFC0000204D435520BD
:10378000496E69742053756363657373200A000082
:1037900001488047014800475D300008A137000814
:1037A000C046C046C046C046FFF7C0FFFFF76EBE2A
:1037B000FFF76DBEFFF76CBEFFF76BBEFFF76ABE8B
:1037C000FFF769BEFFF768BEFFF767BEFFF766BE8B
:1037D000FFF7FEBFFFF7FEBFFFF7FEBFFFF79EBE7E
:1037E000FFF7FEBFFFF7FEBFFFF7FEBFFFF7FEBF0D
:1037F000FFF7FEBFFFF7FEBFFFF7FEBFFFF7FEBFFD
:10380000FFF7FEBFFFF7FEBFFEF745BEFEF72CBE7B
:10381000FFF7F4BEFFF703BFFFF7FEBFFFF7FEBFE2
:10382000FFF7FEBFFFF7FEBFFFF7FEBFFFF7FEBFCC
:10383000FFF7FEBFFFF7FEBFFFF7FEBFFFF7FEBFBC
:10384000FFF7FEBFFFF7FEBFFFF7FEBFFFF7FEBFAC
:10385000FFF7FEBFFFF7FEBFFFF7FEBFFFF7FEBF9C
:10386000FFF7FEBFFFF71EBEFFF7FEBFFFF736BE36
:10387000FFF7FEBFFFF7FEBFFFF7FEBFE400F8FF54
:10388000DC00FAFF8100D1001F0204010150030097
:1038900020A003002050030020500300205003000C
:1038A000203901002020010020DC00170102030460
:1038B00001020304060708090809050602040608B0
:0438C000005125028C
:04000005080037A117
:00000001FF
